{
  "contractName": "CommentVotes",
  "abi": [
    {
      "constant": true,
      "inputs": [
        {
          "name": "",
          "type": "address"
        }
      ],
      "name": "balances",
      "outputs": [
        {
          "name": "",
          "type": "uint256"
        }
      ],
      "payable": false,
      "stateMutability": "view",
      "type": "function"
    },
    {
      "constant": true,
      "inputs": [
        {
          "name": "",
          "type": "uint256"
        }
      ],
      "name": "votes",
      "outputs": [
        {
          "name": "hash",
          "type": "bytes32"
        }
      ],
      "payable": false,
      "stateMutability": "view",
      "type": "function"
    },
    {
      "constant": true,
      "inputs": [
        {
          "name": "",
          "type": "bytes32"
        }
      ],
      "name": "voteToAuthor",
      "outputs": [
        {
          "name": "",
          "type": "address"
        }
      ],
      "payable": false,
      "stateMutability": "view",
      "type": "function"
    },
    {
      "constant": false,
      "inputs": [],
      "name": "renounceOwnership",
      "outputs": [],
      "payable": false,
      "stateMutability": "nonpayable",
      "type": "function"
    },
    {
      "constant": true,
      "inputs": [],
      "name": "commentAuthorBonus",
      "outputs": [
        {
          "name": "",
          "type": "uint256"
        }
      ],
      "payable": false,
      "stateMutability": "view",
      "type": "function"
    },
    {
      "constant": true,
      "inputs": [],
      "name": "owner",
      "outputs": [
        {
          "name": "",
          "type": "address"
        }
      ],
      "payable": false,
      "stateMutability": "view",
      "type": "function"
    },
    {
      "constant": true,
      "inputs": [],
      "name": "isOwner",
      "outputs": [
        {
          "name": "",
          "type": "bool"
        }
      ],
      "payable": false,
      "stateMutability": "view",
      "type": "function"
    },
    {
      "constant": true,
      "inputs": [],
      "name": "postAuthorBonus",
      "outputs": [
        {
          "name": "",
          "type": "uint256"
        }
      ],
      "payable": false,
      "stateMutability": "view",
      "type": "function"
    },
    {
      "constant": true,
      "inputs": [],
      "name": "voteFee",
      "outputs": [
        {
          "name": "",
          "type": "uint256"
        }
      ],
      "payable": false,
      "stateMutability": "view",
      "type": "function"
    },
    {
      "constant": false,
      "inputs": [
        {
          "name": "newOwner",
          "type": "address"
        }
      ],
      "name": "transferOwnership",
      "outputs": [],
      "payable": false,
      "stateMutability": "nonpayable",
      "type": "function"
    },
    {
      "inputs": [
        {
          "name": "_postsAddress",
          "type": "address"
        },
        {
          "name": "_commentsAddress",
          "type": "address"
        }
      ],
      "payable": false,
      "stateMutability": "nonpayable",
      "type": "constructor"
    },
    {
      "anonymous": false,
      "inputs": [
        {
          "indexed": true,
          "name": "hash",
          "type": "bytes32"
        },
        {
          "indexed": true,
          "name": "commentHash",
          "type": "bytes32"
        },
        {
          "indexed": true,
          "name": "author",
          "type": "address"
        }
      ],
      "name": "VoteAdded",
      "type": "event"
    },
    {
      "anonymous": false,
      "inputs": [
        {
          "indexed": true,
          "name": "oldAddress",
          "type": "address"
        },
        {
          "indexed": true,
          "name": "newAddress",
          "type": "address"
        }
      ],
      "name": "PostsAddressChanged",
      "type": "event"
    },
    {
      "anonymous": false,
      "inputs": [
        {
          "indexed": true,
          "name": "oldAddress",
          "type": "address"
        },
        {
          "indexed": true,
          "name": "newAddress",
          "type": "address"
        }
      ],
      "name": "CommentsAddressChanged",
      "type": "event"
    },
    {
      "anonymous": false,
      "inputs": [
        {
          "indexed": true,
          "name": "previousOwner",
          "type": "address"
        },
        {
          "indexed": true,
          "name": "newOwner",
          "type": "address"
        }
      ],
      "name": "OwnershipTransferred",
      "type": "event"
    },
    {
      "constant": true,
      "inputs": [],
      "name": "getVoteCount",
      "outputs": [
        {
          "name": "",
          "type": "uint256"
        }
      ],
      "payable": false,
      "stateMutability": "view",
      "type": "function"
    },
    {
      "constant": true,
      "inputs": [],
      "name": "getTotalFee",
      "outputs": [
        {
          "name": "",
          "type": "uint256"
        }
      ],
      "payable": false,
      "stateMutability": "view",
      "type": "function"
    },
    {
      "constant": false,
      "inputs": [
        {
          "name": "_hash",
          "type": "bytes32"
        },
        {
          "name": "_commentHash",
          "type": "bytes32"
        }
      ],
      "name": "addVote",
      "outputs": [],
      "payable": true,
      "stateMutability": "payable",
      "type": "function"
    },
    {
      "constant": false,
      "inputs": [
        {
          "name": "_newPostsAddress",
          "type": "address"
        }
      ],
      "name": "setPostsAddress",
      "outputs": [],
      "payable": false,
      "stateMutability": "nonpayable",
      "type": "function"
    },
    {
      "constant": false,
      "inputs": [
        {
          "name": "_newCommentsAddress",
          "type": "address"
        }
      ],
      "name": "setCommentsAddress",
      "outputs": [],
      "payable": false,
      "stateMutability": "nonpayable",
      "type": "function"
    },
    {
      "constant": false,
      "inputs": [
        {
          "name": "amount",
          "type": "uint256"
        }
      ],
      "name": "withdraw",
      "outputs": [],
      "payable": false,
      "stateMutability": "nonpayable",
      "type": "function"
    }
  ],
  "bytecode": "0x608060405266038d7ea4c680006001556601c6bf526340006002556601c6bf5263400060035534801561003157600080fd5b5060405160408061164b8339810180604052604081101561005157600080fd5b810190808051906020019092919080519060200190929190505050336000806101000a81548173ffffffffffffffffffffffffffffffffffffffff021916908373ffffffffffffffffffffffffffffffffffffffff1602179055506000809054906101000a900473ffffffffffffffffffffffffffffffffffffffff1673ffffffffffffffffffffffffffffffffffffffff16600073ffffffffffffffffffffffffffffffffffffffff167f8be0079c531659141344cd1fd0a4f28419497f9722a3daafe3b4186f6b6457e060405160405180910390a381600460006101000a81548173ffffffffffffffffffffffffffffffffffffffff021916908373ffffffffffffffffffffffffffffffffffffffff160217905550600460009054906101000a900473ffffffffffffffffffffffffffffffffffffffff16600660006101000a81548173ffffffffffffffffffffffffffffffffffffffff021916908373ffffffffffffffffffffffffffffffffffffffff16021790555080600560006101000a81548173ffffffffffffffffffffffffffffffffffffffff021916908373ffffffffffffffffffffffffffffffffffffffff160217905550600560009054906101000a900473ffffffffffffffffffffffffffffffffffffffff16600760006101000a81548173ffffffffffffffffffffffffffffffffffffffff021916908373ffffffffffffffffffffffffffffffffffffffff16021790555050506113ca806102816000396000f3fe6080604052600436106100f35760003560e01c80637ae316d01161008a578063d9ae59fc11610059578063d9ae59fc14610409578063da2b4c1e1461045a578063e7b3387c14610485578063f2fde38b146104b0576100f3565b80637ae316d01461032d5780638da5cb5b146103585780638f32d59b146103af57806394990017146103de576100f3565b80635df81330116100c65780635df8133014610221578063606185fd14610270578063715018a6146102eb57806373128e6314610302576100f3565b806327e235e3146100f85780632e1a7d4d1461015d57806335921b081461019857806336fd6624146101d0575b600080fd5b34801561010457600080fd5b506101476004803603602081101561011b57600080fd5b81019080803573ffffffffffffffffffffffffffffffffffffffff169060200190929190505050610501565b6040518082815260200191505060405180910390f35b34801561016957600080fd5b506101966004803603602081101561018057600080fd5b8101908080359060200190929190505050610519565b005b6101ce600480360360408110156101ae57600080fd5b810190808035906020019092919080359060200190929190505050610665565b005b3480156101dc57600080fd5b5061021f600480360360208110156101f357600080fd5b81019080803573ffffffffffffffffffffffffffffffffffffffff169060200190929190505050610b44565b005b34801561022d57600080fd5b5061025a6004803603602081101561024457600080fd5b8101908080359060200190929190505050610d45565b6040518082815260200191505060405180910390f35b34801561027c57600080fd5b506102a96004803603602081101561029357600080fd5b8101908080359060200190929190505050610d6c565b604051808273ffffffffffffffffffffffffffffffffffffffff1673ffffffffffffffffffffffffffffffffffffffff16815260200191505060405180910390f35b3480156102f757600080fd5b50610300610d9f565b005b34801561030e57600080fd5b50610317610ed8565b6040518082815260200191505060405180910390f35b34801561033957600080fd5b50610342610ede565b6040518082815260200191505060405180910390f35b34801561036457600080fd5b5061036d610ef0565b604051808273ffffffffffffffffffffffffffffffffffffffff1673ffffffffffffffffffffffffffffffffffffffff16815260200191505060405180910390f35b3480156103bb57600080fd5b506103c4610f19565b604051808215151515815260200191505060405180910390f35b3480156103ea57600080fd5b506103f3610f70565b6040518082815260200191505060405180910390f35b34801561041557600080fd5b506104586004803603602081101561042c57600080fd5b81019080803573ffffffffffffffffffffffffffffffffffffffff169060200190929190505050610f76565b005b34801561046657600080fd5b5061046f611177565b6040518082815260200191505060405180910390f35b34801561049157600080fd5b5061049a61117d565b6040518082815260200191505060405180910390f35b3480156104bc57600080fd5b506104ff600480360360208110156104d357600080fd5b81019080803573ffffffffffffffffffffffffffffffffffffffff16906020019092919050505061118a565b005b600a6020528060005260406000206000915090505481565b600a60003373ffffffffffffffffffffffffffffffffffffffff1673ffffffffffffffffffffffffffffffffffffffff168152602001908152602001600020548111156105ce576040517f08c379a000000000000000000000000000000000000000000000000000000000815260040180806020018281038252601e8152602001807f4e6f7420656e6f7567682062616c616e636520746f207769746864726177000081525060200191505060405180910390fd5b80600a60003373ffffffffffffffffffffffffffffffffffffffff1673ffffffffffffffffffffffffffffffffffffffff168152602001908152602001600020600082825403925050819055503373ffffffffffffffffffffffffffffffffffffffff166108fc829081150290604051600060405180830381858888f19350505050158015610661573d6000803e3d6000fd5b5050565b61066d610ede565b34146106e1576040517f08c379a000000000000000000000000000000000000000000000000000000000815260040180806020018281038252601f8152602001807f4e6f7420656e6f7567682066756e647320746f20616464206120766f7465210081525060200191505060405180910390fd5b600080600760009054906101000a900473ffffffffffffffffffffffffffffffffffffffff1673ffffffffffffffffffffffffffffffffffffffff16637bb966f0846040518263ffffffff1660e01b815260040180828152602001915050604080518083038186803b15801561075657600080fd5b505afa15801561076a573d6000803e3d6000fd5b505050506040513d604081101561078057600080fd5b810190808051906020019092919080519060200190929190505050915091506000600660009054906101000a900473ffffffffffffffffffffffffffffffffffffffff1673ffffffffffffffffffffffffffffffffffffffff166382f252a7836040518263ffffffff1660e01b81526004018082815260200191505060206040518083038186803b15801561081457600080fd5b505afa158015610828573d6000803e3d6000fd5b505050506040513d602081101561083e57600080fd5b81019080805190602001909291905050509050600a60008273ffffffffffffffffffffffffffffffffffffffff1673ffffffffffffffffffffffffffffffffffffffff16815260200190815260200160002054600254600a60008473ffffffffffffffffffffffffffffffffffffffff1673ffffffffffffffffffffffffffffffffffffffff1681526020019081526020016000205401116108df57600080fd5b600a60008473ffffffffffffffffffffffffffffffffffffffff1673ffffffffffffffffffffffffffffffffffffffff16815260200190815260200160002054600354600a60008673ffffffffffffffffffffffffffffffffffffffff1673ffffffffffffffffffffffffffffffffffffffff16815260200190815260200160002054011161096d57600080fd5b3373ffffffffffffffffffffffffffffffffffffffff1684867fc58317f3d54059c20f34effbf9280b0797376f67288464bbcf80575214bb1f6e60405160405180910390a4600860405180602001604052808781525090806001815401808255809150509060018203906000526020600020016000909192909190915060008201518160000155505050336009600087815260200190815260200160002060006101000a81548173ffffffffffffffffffffffffffffffffffffffff021916908373ffffffffffffffffffffffffffffffffffffffff160217905550600254600a60008373ffffffffffffffffffffffffffffffffffffffff1673ffffffffffffffffffffffffffffffffffffffff16815260200190815260200160002060008282540192505081905550600354600a60008573ffffffffffffffffffffffffffffffffffffffff1673ffffffffffffffffffffffffffffffffffffffff16815260200190815260200160002060008282540192505081905550600154600a6000610af6610ef0565b73ffffffffffffffffffffffffffffffffffffffff1673ffffffffffffffffffffffffffffffffffffffff168152602001908152602001600020600082825401925050819055505050505050565b610b4c610f19565b610bbe576040517f08c379a00000000000000000000000000000000000000000000000000000000081526004018080602001828103825260208152602001807f4f776e61626c653a2063616c6c6572206973206e6f7420746865206f776e657281525060200191505060405180910390fd5b600073ffffffffffffffffffffffffffffffffffffffff168173ffffffffffffffffffffffffffffffffffffffff161415610c44576040517f08c379a000000000000000000000000000000000000000000000000000000000815260040180806020018281038252602481526020018061137b6024913960400191505060405180910390fd5b8073ffffffffffffffffffffffffffffffffffffffff16600460009054906101000a900473ffffffffffffffffffffffffffffffffffffffff1673ffffffffffffffffffffffffffffffffffffffff167f3c492f084c3d4b8f3844bb604f62e56a04de04da308c0d0a3b0ded9427dfd2a860405160405180910390a380600460006101000a81548173ffffffffffffffffffffffffffffffffffffffff021916908373ffffffffffffffffffffffffffffffffffffffff16021790555080600660006101000a81548173ffffffffffffffffffffffffffffffffffffffff021916908373ffffffffffffffffffffffffffffffffffffffff16021790555050565b60088181548110610d5257fe5b906000526020600020016000915090508060000154905081565b60096020528060005260406000206000915054906101000a900473ffffffffffffffffffffffffffffffffffffffff1681565b610da7610f19565b610e19576040517f08c379a00000000000000000000000000000000000000000000000000000000081526004018080602001828103825260208152602001807f4f776e61626c653a2063616c6c6572206973206e6f7420746865206f776e657281525060200191505060405180910390fd5b600073ffffffffffffffffffffffffffffffffffffffff166000809054906101000a900473ffffffffffffffffffffffffffffffffffffffff1673ffffffffffffffffffffffffffffffffffffffff167f8be0079c531659141344cd1fd0a4f28419497f9722a3daafe3b4186f6b6457e060405160405180910390a360008060006101000a81548173ffffffffffffffffffffffffffffffffffffffff021916908373ffffffffffffffffffffffffffffffffffffffff160217905550565b60035481565b60006003546002546001540101905090565b60008060009054906101000a900473ffffffffffffffffffffffffffffffffffffffff16905090565b60008060009054906101000a900473ffffffffffffffffffffffffffffffffffffffff1673ffffffffffffffffffffffffffffffffffffffff163373ffffffffffffffffffffffffffffffffffffffff1614905090565b60025481565b610f7e610f19565b610ff0576040517f08c379a00000000000000000000000000000000000000000000000000000000081526004018080602001828103825260208152602001807f4f776e61626c653a2063616c6c6572206973206e6f7420746865206f776e657281525060200191505060405180910390fd5b600073ffffffffffffffffffffffffffffffffffffffff168173ffffffffffffffffffffffffffffffffffffffff161415611076576040517f08c379a000000000000000000000000000000000000000000000000000000000815260040180806020018281038252602481526020018061137b6024913960400191505060405180910390fd5b8073ffffffffffffffffffffffffffffffffffffffff16600560009054906101000a900473ffffffffffffffffffffffffffffffffffffffff1673ffffffffffffffffffffffffffffffffffffffff167fa9ca9f2fe4f8bd73efe1f64cf57e7bc7d2634513fe09dd1c78b3fd827ecfdce960405160405180910390a380600560006101000a81548173ffffffffffffffffffffffffffffffffffffffff021916908373ffffffffffffffffffffffffffffffffffffffff16021790555080600760006101000a81548173ffffffffffffffffffffffffffffffffffffffff021916908373ffffffffffffffffffffffffffffffffffffffff16021790555050565b60015481565b6000600880549050905090565b611192610f19565b611204576040517f08c379a00000000000000000000000000000000000000000000000000000000081526004018080602001828103825260208152602001807f4f776e61626c653a2063616c6c6572206973206e6f7420746865206f776e657281525060200191505060405180910390fd5b61120d81611210565b50565b600073ffffffffffffffffffffffffffffffffffffffff168173ffffffffffffffffffffffffffffffffffffffff161415611296576040517f08c379a00000000000000000000000000000000000000000000000000000000081526004018080602001828103825260268152602001806113556026913960400191505060405180910390fd5b8073ffffffffffffffffffffffffffffffffffffffff166000809054906101000a900473ffffffffffffffffffffffffffffffffffffffff1673ffffffffffffffffffffffffffffffffffffffff167f8be0079c531659141344cd1fd0a4f28419497f9722a3daafe3b4186f6b6457e060405160405180910390a3806000806101000a81548173ffffffffffffffffffffffffffffffffffffffff021916908373ffffffffffffffffffffffffffffffffffffffff1602179055505056fe4f776e61626c653a206e6577206f776e657220697320746865207a65726f2061646472657373506f73747320636f6e7472616374277320616464726573732063616e6e6f742062652030a165627a7a72305820a6b823b24b861882562eae72a18c371783a366d4b3f9cb3a51a10a80b1f326590029",
  "source": "pragma solidity >=0.5.8 < 0.6.0;\n\nimport \"./Ownable.sol\";\nimport \"./Posts.sol\";\nimport \"./Comments.sol\";\n\ncontract CommentVotes is Ownable {\n    uint public voteFee = 0.001 ether;\n    uint public postAuthorBonus = 0.0005 ether;\n    uint public commentAuthorBonus = 0.0005 ether;\n\n    event VoteAdded(bytes32 indexed hash, bytes32 indexed commentHash, address indexed author);\n    event PostsAddressChanged(address indexed oldAddress, address indexed newAddress);\n    event CommentsAddressChanged(address indexed oldAddress, address indexed newAddress);\n\n    address private postsAddress;\n    address private commentsAddress;\n\n    Posts private posts;\n    Comments private comments;\n\n    struct Vote {\n        bytes32 hash;\n    }\n\n    Vote[] public votes;\n    mapping (bytes32 => address) public voteToAuthor;\n\n    mapping (address => uint) public balances;\n\n    constructor(address _postsAddress, address _commentsAddress) public {\n        postsAddress = _postsAddress;\n        posts = Posts(postsAddress);\n        commentsAddress = _commentsAddress;\n        comments = Comments(commentsAddress);\n    }\n\n    function getVoteCount() external view returns(uint) {\n        return votes.length;\n    }\n\n    function getTotalFee() public view returns(uint) {\n        return voteFee + postAuthorBonus + commentAuthorBonus;\n    }\n\n    function addVote(bytes32 _hash, bytes32 _commentHash) external payable {\n        require(msg.value == getTotalFee(),\n                \"Not enough funds to add a vote!\");\n\n        (address commentAuthor, bytes32 postHash) = comments.hashToComment(_commentHash);\n        address postAuthor = posts.postToAuthor(postHash);\n\n        require(balances[postAuthor] + postAuthorBonus > balances[postAuthor]);\n        require(balances[commentAuthor] + commentAuthorBonus > balances[commentAuthor]);\n\n        emit VoteAdded(_hash, _commentHash, msg.sender);\n        votes.push(Vote(_hash));\n        voteToAuthor[_hash] = msg.sender;\n        balances[postAuthor] += postAuthorBonus;\n        balances[commentAuthor]  += commentAuthorBonus;\n        balances[owner()] += voteFee;\n    }\n\n    function setPostsAddress(address _newPostsAddress) external onlyOwner {\n        require(_newPostsAddress != address(0), \"Posts contract's address cannot be 0\");\n        emit PostsAddressChanged(postsAddress, _newPostsAddress);\n        postsAddress = _newPostsAddress;\n        posts = Posts(_newPostsAddress);\n    }\n\n    function setCommentsAddress(address _newCommentsAddress) external onlyOwner {\n        require(_newCommentsAddress != address(0), \"Posts contract's address cannot be 0\");\n        emit CommentsAddressChanged(commentsAddress, _newCommentsAddress);\n        commentsAddress = _newCommentsAddress;\n        comments = Comments(_newCommentsAddress);\n    }\n\n    function withdraw(uint amount) external {\n        require(amount <= balances[msg.sender], \"Not enough balance to withdraw\");\n        balances[msg.sender] -= amount;\n        msg.sender.transfer(amount);\n    }\n}\n",
  "sourcePath": "/app/contracts/CommentVotes.sol",
  "compiler": {
    "name": "solc",
    "version": "0.5.8+commit.23d335f2.Emscripten.clang"
  },
  "schemaVersion": "3.0.16",
  "updatedAt": "2019-09-30T07:10:22.400Z",
  "devdoc": {
    "methods": {
      "isOwner()": {
        "details": "Returns true if the caller is the current owner."
      },
      "owner()": {
        "details": "Returns the address of the current owner."
      },
      "renounceOwnership()": {
        "details": "Leaves the contract without owner. It will not be possible to call `onlyOwner` functions anymore. Can only be called by the current owner.     * > Note: Renouncing ownership will leave the contract without an owner, thereby removing any functionality that is only available to the owner."
      },
      "transferOwnership(address)": {
        "details": "Transfers ownership of the contract to a new account (`newOwner`). Can only be called by the current owner."
      }
    }
  },
  "userdoc": {
    "methods": {}
  }
}