{
  "contractName": "Comments",
  "abi": [
    {
      "constant": true,
      "inputs": [
        {
          "name": "",
          "type": "address"
        }
      ],
      "name": "balances",
      "outputs": [
        {
          "name": "",
          "type": "uint256"
        }
      ],
      "payable": false,
      "stateMutability": "view",
      "type": "function"
    },
    {
      "constant": false,
      "inputs": [],
      "name": "renounceOwnership",
      "outputs": [],
      "payable": false,
      "stateMutability": "nonpayable",
      "type": "function"
    },
    {
      "constant": true,
      "inputs": [
        {
          "name": "",
          "type": "bytes32"
        }
      ],
      "name": "hashToComment",
      "outputs": [
        {
          "name": "author",
          "type": "address"
        },
        {
          "name": "postHash",
          "type": "bytes32"
        }
      ],
      "payable": false,
      "stateMutability": "view",
      "type": "function"
    },
    {
      "constant": true,
      "inputs": [],
      "name": "owner",
      "outputs": [
        {
          "name": "",
          "type": "address"
        }
      ],
      "payable": false,
      "stateMutability": "view",
      "type": "function"
    },
    {
      "constant": true,
      "inputs": [
        {
          "name": "",
          "type": "uint256"
        }
      ],
      "name": "comments",
      "outputs": [
        {
          "name": "",
          "type": "bytes32"
        }
      ],
      "payable": false,
      "stateMutability": "view",
      "type": "function"
    },
    {
      "constant": true,
      "inputs": [],
      "name": "isOwner",
      "outputs": [
        {
          "name": "",
          "type": "bool"
        }
      ],
      "payable": false,
      "stateMutability": "view",
      "type": "function"
    },
    {
      "constant": true,
      "inputs": [],
      "name": "postAuthorBonus",
      "outputs": [
        {
          "name": "",
          "type": "uint256"
        }
      ],
      "payable": false,
      "stateMutability": "view",
      "type": "function"
    },
    {
      "constant": true,
      "inputs": [],
      "name": "addCommentFee",
      "outputs": [
        {
          "name": "",
          "type": "uint256"
        }
      ],
      "payable": false,
      "stateMutability": "view",
      "type": "function"
    },
    {
      "constant": false,
      "inputs": [
        {
          "name": "newOwner",
          "type": "address"
        }
      ],
      "name": "transferOwnership",
      "outputs": [],
      "payable": false,
      "stateMutability": "nonpayable",
      "type": "function"
    },
    {
      "inputs": [
        {
          "name": "_postsAddress",
          "type": "address"
        }
      ],
      "payable": false,
      "stateMutability": "nonpayable",
      "type": "constructor"
    },
    {
      "anonymous": false,
      "inputs": [
        {
          "indexed": true,
          "name": "hash",
          "type": "bytes32"
        },
        {
          "indexed": true,
          "name": "postHash",
          "type": "bytes32"
        },
        {
          "indexed": true,
          "name": "author",
          "type": "address"
        }
      ],
      "name": "CommentAdded",
      "type": "event"
    },
    {
      "anonymous": false,
      "inputs": [
        {
          "indexed": true,
          "name": "oldAddress",
          "type": "address"
        },
        {
          "indexed": true,
          "name": "newAddress",
          "type": "address"
        }
      ],
      "name": "PostsAddressChanged",
      "type": "event"
    },
    {
      "anonymous": false,
      "inputs": [
        {
          "indexed": true,
          "name": "previousOwner",
          "type": "address"
        },
        {
          "indexed": true,
          "name": "newOwner",
          "type": "address"
        }
      ],
      "name": "OwnershipTransferred",
      "type": "event"
    },
    {
      "constant": true,
      "inputs": [],
      "name": "getCommentCount",
      "outputs": [
        {
          "name": "",
          "type": "uint256"
        }
      ],
      "payable": false,
      "stateMutability": "view",
      "type": "function"
    },
    {
      "constant": true,
      "inputs": [],
      "name": "getTotalFee",
      "outputs": [
        {
          "name": "",
          "type": "uint256"
        }
      ],
      "payable": false,
      "stateMutability": "view",
      "type": "function"
    },
    {
      "constant": false,
      "inputs": [
        {
          "name": "_hash",
          "type": "bytes32"
        },
        {
          "name": "_postHash",
          "type": "bytes32"
        }
      ],
      "name": "addComment",
      "outputs": [],
      "payable": true,
      "stateMutability": "payable",
      "type": "function"
    },
    {
      "constant": false,
      "inputs": [
        {
          "name": "_newPostsAddress",
          "type": "address"
        }
      ],
      "name": "setPostsAddress",
      "outputs": [],
      "payable": false,
      "stateMutability": "nonpayable",
      "type": "function"
    },
    {
      "constant": false,
      "inputs": [
        {
          "name": "amount",
          "type": "uint256"
        }
      ],
      "name": "withdraw",
      "outputs": [],
      "payable": false,
      "stateMutability": "nonpayable",
      "type": "function"
    }
  ],
  "bytecode": "0x608060405266071afd498d000060015566071afd498d00006002556000600360006101000a81548173ffffffffffffffffffffffffffffffffffffffff021916908373ffffffffffffffffffffffffffffffffffffffff16021790555034801561006857600080fd5b506040516020806111d68339810180604052602081101561008857600080fd5b8101908080519060200190929190505050336000806101000a81548173ffffffffffffffffffffffffffffffffffffffff021916908373ffffffffffffffffffffffffffffffffffffffff1602179055506000809054906101000a900473ffffffffffffffffffffffffffffffffffffffff1673ffffffffffffffffffffffffffffffffffffffff16600073ffffffffffffffffffffffffffffffffffffffff167f8be0079c531659141344cd1fd0a4f28419497f9722a3daafe3b4186f6b6457e060405160405180910390a380600360006101000a81548173ffffffffffffffffffffffffffffffffffffffff021916908373ffffffffffffffffffffffffffffffffffffffff160217905550600360009054906101000a900473ffffffffffffffffffffffffffffffffffffffff16600460006101000a81548173ffffffffffffffffffffffffffffffffffffffff021916908373ffffffffffffffffffffffffffffffffffffffff16021790555050610fcd806102096000396000f3fe6080604052600436106100dd5760003560e01c80638da5cb5b1161007f5780639499001711610059578063949900171461039757806394cfd29b146103c2578063c2da79d0146103fa578063f2fde38b14610425576100dd565b80638da5cb5b146102c25780638ebb4c15146103195780638f32d59b14610368576100dd565b806336fd6624116100bb57806336fd6624146101ad578063715018a6146101fe5780637ae316d0146102155780637bb966f014610240576100dd565b806316e31ea3146100e257806327e235e31461010d5780632e1a7d4d14610172575b600080fd5b3480156100ee57600080fd5b506100f7610476565b6040518082815260200191505060405180910390f35b34801561011957600080fd5b5061015c6004803603602081101561013057600080fd5b81019080803573ffffffffffffffffffffffffffffffffffffffff169060200190929190505050610483565b6040518082815260200191505060405180910390f35b34801561017e57600080fd5b506101ab6004803603602081101561019557600080fd5b810190808035906020019092919050505061049b565b005b3480156101b957600080fd5b506101fc600480360360208110156101d057600080fd5b81019080803573ffffffffffffffffffffffffffffffffffffffff1690602001909291905050506105e7565b005b34801561020a57600080fd5b506102136107e8565b005b34801561022157600080fd5b5061022a610921565b6040518082815260200191505060405180910390f35b34801561024c57600080fd5b506102796004803603602081101561026357600080fd5b810190808035906020019092919050505061092f565b604051808373ffffffffffffffffffffffffffffffffffffffff1673ffffffffffffffffffffffffffffffffffffffff1681526020018281526020019250505060405180910390f35b3480156102ce57600080fd5b506102d7610973565b604051808273ffffffffffffffffffffffffffffffffffffffff1673ffffffffffffffffffffffffffffffffffffffff16815260200191505060405180910390f35b34801561032557600080fd5b506103526004803603602081101561033c57600080fd5b810190808035906020019092919050505061099c565b6040518082815260200191505060405180910390f35b34801561037457600080fd5b5061037d6109bd565b604051808215151515815260200191505060405180910390f35b3480156103a357600080fd5b506103ac610a14565b6040518082815260200191505060405180910390f35b6103f8600480360360408110156103d857600080fd5b810190808035906020019092919080359060200190929190505050610a1a565b005b34801561040657600080fd5b5061040f610d65565b6040518082815260200191505060405180910390f35b34801561043157600080fd5b506104746004803603602081101561044857600080fd5b81019080803573ffffffffffffffffffffffffffffffffffffffff169060200190929190505050610d6b565b005b6000600580549050905090565b60076020528060005260406000206000915090505481565b600760003373ffffffffffffffffffffffffffffffffffffffff1673ffffffffffffffffffffffffffffffffffffffff16815260200190815260200160002054811115610550576040517f08c379a000000000000000000000000000000000000000000000000000000000815260040180806020018281038252601e8152602001807f4e6f7420656e6f7567682062616c616e636520746f207769746864726177000081525060200191505060405180910390fd5b80600760003373ffffffffffffffffffffffffffffffffffffffff1673ffffffffffffffffffffffffffffffffffffffff168152602001908152602001600020600082825403925050819055503373ffffffffffffffffffffffffffffffffffffffff166108fc829081150290604051600060405180830381858888f193505050501580156105e3573d6000803e3d6000fd5b5050565b6105ef6109bd565b610661576040517f08c379a00000000000000000000000000000000000000000000000000000000081526004018080602001828103825260208152602001807f4f776e61626c653a2063616c6c6572206973206e6f7420746865206f776e657281525060200191505060405180910390fd5b600073ffffffffffffffffffffffffffffffffffffffff168173ffffffffffffffffffffffffffffffffffffffff1614156106e7576040517f08c379a0000000000000000000000000000000000000000000000000000000008152600401808060200182810382526024815260200180610f7e6024913960400191505060405180910390fd5b8073ffffffffffffffffffffffffffffffffffffffff16600360009054906101000a900473ffffffffffffffffffffffffffffffffffffffff1673ffffffffffffffffffffffffffffffffffffffff167f3c492f084c3d4b8f3844bb604f62e56a04de04da308c0d0a3b0ded9427dfd2a860405160405180910390a380600360006101000a81548173ffffffffffffffffffffffffffffffffffffffff021916908373ffffffffffffffffffffffffffffffffffffffff16021790555080600460006101000a81548173ffffffffffffffffffffffffffffffffffffffff021916908373ffffffffffffffffffffffffffffffffffffffff16021790555050565b6107f06109bd565b610862576040517f08c379a00000000000000000000000000000000000000000000000000000000081526004018080602001828103825260208152602001807f4f776e61626c653a2063616c6c6572206973206e6f7420746865206f776e657281525060200191505060405180910390fd5b600073ffffffffffffffffffffffffffffffffffffffff166000809054906101000a900473ffffffffffffffffffffffffffffffffffffffff1673ffffffffffffffffffffffffffffffffffffffff167f8be0079c531659141344cd1fd0a4f28419497f9722a3daafe3b4186f6b6457e060405160405180910390a360008060006101000a81548173ffffffffffffffffffffffffffffffffffffffff021916908373ffffffffffffffffffffffffffffffffffffffff160217905550565b600060025460015401905090565b60066020528060005260406000206000915090508060000160009054906101000a900473ffffffffffffffffffffffffffffffffffffffff16908060010154905082565b60008060009054906101000a900473ffffffffffffffffffffffffffffffffffffffff16905090565b600581815481106109a957fe5b906000526020600020016000915090505481565b60008060009054906101000a900473ffffffffffffffffffffffffffffffffffffffff1673ffffffffffffffffffffffffffffffffffffffff163373ffffffffffffffffffffffffffffffffffffffff1614905090565b60025481565b600254600154013414610a78576040517f08c379a0000000000000000000000000000000000000000000000000000000008152600401808060200182810382526022815260200180610f366022913960400191505060405180910390fd5b6000600460009054906101000a900473ffffffffffffffffffffffffffffffffffffffff1673ffffffffffffffffffffffffffffffffffffffff166382f252a7836040518263ffffffff1660e01b81526004018082815260200191505060206040518083038186803b158015610aed57600080fd5b505afa158015610b01573d6000803e3d6000fd5b505050506040513d6020811015610b1757600080fd5b81019080805190602001909291905050509050600760008273ffffffffffffffffffffffffffffffffffffffff1673ffffffffffffffffffffffffffffffffffffffff16815260200190815260200160002054600254600760008473ffffffffffffffffffffffffffffffffffffffff1673ffffffffffffffffffffffffffffffffffffffff168152602001908152602001600020540111610bb857600080fd5b3373ffffffffffffffffffffffffffffffffffffffff1682847feb23a547cc405b4454718db4391dec96b82d2fb60b2b72bcf280ab8a3b388a7660405160405180910390a4600583908060018154018082558091505090600182039060005260206000200160009091929091909150555060405180604001604052803373ffffffffffffffffffffffffffffffffffffffff168152602001838152506006600085815260200190815260200160002060008201518160000160006101000a81548173ffffffffffffffffffffffffffffffffffffffff021916908373ffffffffffffffffffffffffffffffffffffffff16021790555060208201518160010155905050600254600760008373ffffffffffffffffffffffffffffffffffffffff1673ffffffffffffffffffffffffffffffffffffffff1681526020019081526020016000206000828254019250508190555060015460076000610d19610973565b73ffffffffffffffffffffffffffffffffffffffff1673ffffffffffffffffffffffffffffffffffffffff16815260200190815260200160002060008282540192505081905550505050565b60015481565b610d736109bd565b610de5576040517f08c379a00000000000000000000000000000000000000000000000000000000081526004018080602001828103825260208152602001807f4f776e61626c653a2063616c6c6572206973206e6f7420746865206f776e657281525060200191505060405180910390fd5b610dee81610df1565b50565b600073ffffffffffffffffffffffffffffffffffffffff168173ffffffffffffffffffffffffffffffffffffffff161415610e77576040517f08c379a0000000000000000000000000000000000000000000000000000000008152600401808060200182810382526026815260200180610f586026913960400191505060405180910390fd5b8073ffffffffffffffffffffffffffffffffffffffff166000809054906101000a900473ffffffffffffffffffffffffffffffffffffffff1673ffffffffffffffffffffffffffffffffffffffff167f8be0079c531659141344cd1fd0a4f28419497f9722a3daafe3b4186f6b6457e060405160405180910390a3806000806101000a81548173ffffffffffffffffffffffffffffffffffffffff021916908373ffffffffffffffffffffffffffffffffffffffff1602179055505056fe4e6f7420656e6f7567682066756e647320746f20616464206120636f6d6d656e74214f776e61626c653a206e6577206f776e657220697320746865207a65726f2061646472657373506f73747320636f6e7472616374277320616464726573732063616e6e6f742062652030a165627a7a723058209411899f3488542cd7b7165b89c8059d0c6b00cf5f70096d2d6dd644d09bc8de0029",
  "source": "pragma solidity >=0.5.8 < 0.6.0;\n\nimport \"./Posts.sol\";\nimport \"./Ownable.sol\";\n\ncontract Comments is Ownable {\n    uint public addCommentFee = 0.002 ether;\n    uint public postAuthorBonus = 0.002 ether;\n\n    event CommentAdded(bytes32 indexed hash, bytes32 indexed postHash, address indexed author);\n    event PostsAddressChanged(address indexed oldAddress, address indexed newAddress);\n\n    address private postsAddress = address(0);\n    Posts private posts;\n\n    struct Comment {\n        address author;\n        bytes32 postHash;\n    }\n\n    bytes32[] public comments;\n    mapping (bytes32 => Comment) public hashToComment;\n\n    mapping (address => uint) public balances;\n\n    constructor(address _postsAddress) public {\n        postsAddress = _postsAddress;\n        posts = Posts(postsAddress);\n    }\n\n    function getCommentCount() external view returns(uint) {\n        return comments.length;\n    }\n\n    function getTotalFee() external view returns(uint) {\n        return addCommentFee + postAuthorBonus;\n    }\n\n    function addComment(bytes32 _hash, bytes32 _postHash) external payable {\n        require(msg.value == addCommentFee + postAuthorBonus,\n            \"Not enough funds to add a comment!\");\n\n        address postAuthor = posts.postToAuthor(_postHash);\n        require(balances[postAuthor] + postAuthorBonus > balances[postAuthor]);\n\n        emit CommentAdded(_hash, _postHash, msg.sender);\n        comments.push(_hash);\n        hashToComment[_hash] = Comment(msg.sender, _postHash);\n        balances[postAuthor] += postAuthorBonus;\n        balances[owner()] += addCommentFee;\n    }\n\n    function setPostsAddress(address _newPostsAddress) external onlyOwner {\n        require(_newPostsAddress != address(0), \"Posts contract's address cannot be 0\");\n        emit PostsAddressChanged(postsAddress, _newPostsAddress);\n        postsAddress = _newPostsAddress;\n        posts = Posts(_newPostsAddress);\n    }\n\n    function withdraw(uint amount) external {\n        require(amount <= balances[msg.sender], \"Not enough balance to withdraw\");\n        balances[msg.sender] -= amount;\n        msg.sender.transfer(amount);\n    }\n}\n",
  "sourcePath": "/app/contracts/Comments.sol",
  "compiler": {
    "name": "solc",
    "version": "0.5.8+commit.23d335f2.Emscripten.clang"
  },
  "schemaVersion": "3.0.16",
  "updatedAt": "2019-09-30T12:48:21.829Z",
  "devdoc": {
    "methods": {
      "isOwner()": {
        "details": "Returns true if the caller is the current owner."
      },
      "owner()": {
        "details": "Returns the address of the current owner."
      },
      "renounceOwnership()": {
        "details": "Leaves the contract without owner. It will not be possible to call `onlyOwner` functions anymore. Can only be called by the current owner.     * > Note: Renouncing ownership will leave the contract without an owner, thereby removing any functionality that is only available to the owner."
      },
      "transferOwnership(address)": {
        "details": "Transfers ownership of the contract to a new account (`newOwner`). Can only be called by the current owner."
      }
    }
  },
  "userdoc": {
    "methods": {}
  }
}