{
  "contractName": "PostVotes",
  "abi": [
    {
      "constant": true,
      "inputs": [
        {
          "name": "",
          "type": "address"
        }
      ],
      "name": "balances",
      "outputs": [
        {
          "name": "",
          "type": "uint256"
        }
      ],
      "payable": false,
      "stateMutability": "view",
      "type": "function"
    },
    {
      "constant": true,
      "inputs": [
        {
          "name": "",
          "type": "uint256"
        }
      ],
      "name": "votes",
      "outputs": [
        {
          "name": "hash",
          "type": "bytes32"
        }
      ],
      "payable": false,
      "stateMutability": "view",
      "type": "function"
    },
    {
      "constant": true,
      "inputs": [
        {
          "name": "",
          "type": "bytes32"
        }
      ],
      "name": "voteToAuthor",
      "outputs": [
        {
          "name": "",
          "type": "address"
        }
      ],
      "payable": false,
      "stateMutability": "view",
      "type": "function"
    },
    {
      "constant": false,
      "inputs": [],
      "name": "renounceOwnership",
      "outputs": [],
      "payable": false,
      "stateMutability": "nonpayable",
      "type": "function"
    },
    {
      "constant": true,
      "inputs": [],
      "name": "owner",
      "outputs": [
        {
          "name": "",
          "type": "address"
        }
      ],
      "payable": false,
      "stateMutability": "view",
      "type": "function"
    },
    {
      "constant": true,
      "inputs": [],
      "name": "isOwner",
      "outputs": [
        {
          "name": "",
          "type": "bool"
        }
      ],
      "payable": false,
      "stateMutability": "view",
      "type": "function"
    },
    {
      "constant": true,
      "inputs": [],
      "name": "postAuthorBonus",
      "outputs": [
        {
          "name": "",
          "type": "uint256"
        }
      ],
      "payable": false,
      "stateMutability": "view",
      "type": "function"
    },
    {
      "constant": true,
      "inputs": [],
      "name": "voteFee",
      "outputs": [
        {
          "name": "",
          "type": "uint256"
        }
      ],
      "payable": false,
      "stateMutability": "view",
      "type": "function"
    },
    {
      "constant": false,
      "inputs": [
        {
          "name": "newOwner",
          "type": "address"
        }
      ],
      "name": "transferOwnership",
      "outputs": [],
      "payable": false,
      "stateMutability": "nonpayable",
      "type": "function"
    },
    {
      "inputs": [
        {
          "name": "_postsAddress",
          "type": "address"
        }
      ],
      "payable": false,
      "stateMutability": "nonpayable",
      "type": "constructor"
    },
    {
      "anonymous": false,
      "inputs": [
        {
          "indexed": true,
          "name": "hash",
          "type": "bytes32"
        },
        {
          "indexed": true,
          "name": "postHash",
          "type": "bytes32"
        },
        {
          "indexed": true,
          "name": "author",
          "type": "address"
        }
      ],
      "name": "VoteAdded",
      "type": "event"
    },
    {
      "anonymous": false,
      "inputs": [
        {
          "indexed": true,
          "name": "oldAddress",
          "type": "address"
        },
        {
          "indexed": true,
          "name": "newAddress",
          "type": "address"
        }
      ],
      "name": "PostsAddressChanged",
      "type": "event"
    },
    {
      "anonymous": false,
      "inputs": [
        {
          "indexed": true,
          "name": "previousOwner",
          "type": "address"
        },
        {
          "indexed": true,
          "name": "newOwner",
          "type": "address"
        }
      ],
      "name": "OwnershipTransferred",
      "type": "event"
    },
    {
      "constant": true,
      "inputs": [],
      "name": "getVoteCount",
      "outputs": [
        {
          "name": "",
          "type": "uint256"
        }
      ],
      "payable": false,
      "stateMutability": "view",
      "type": "function"
    },
    {
      "constant": true,
      "inputs": [],
      "name": "getTotalFee",
      "outputs": [
        {
          "name": "",
          "type": "uint256"
        }
      ],
      "payable": false,
      "stateMutability": "view",
      "type": "function"
    },
    {
      "constant": false,
      "inputs": [
        {
          "name": "_hash",
          "type": "bytes32"
        },
        {
          "name": "_postHash",
          "type": "bytes32"
        }
      ],
      "name": "addVote",
      "outputs": [],
      "payable": true,
      "stateMutability": "payable",
      "type": "function"
    },
    {
      "constant": false,
      "inputs": [
        {
          "name": "_newPostsAddress",
          "type": "address"
        }
      ],
      "name": "setPostsAddress",
      "outputs": [],
      "payable": false,
      "stateMutability": "nonpayable",
      "type": "function"
    },
    {
      "constant": false,
      "inputs": [
        {
          "name": "amount",
          "type": "uint256"
        }
      ],
      "name": "withdraw",
      "outputs": [],
      "payable": false,
      "stateMutability": "nonpayable",
      "type": "function"
    }
  ],
  "bytecode": "0x608060405266038d7ea4c6800060015566038d7ea4c6800060025534801561002657600080fd5b506040516020806111578339810180604052602081101561004657600080fd5b8101908080519060200190929190505050336000806101000a81548173ffffffffffffffffffffffffffffffffffffffff021916908373ffffffffffffffffffffffffffffffffffffffff1602179055506000809054906101000a900473ffffffffffffffffffffffffffffffffffffffff1673ffffffffffffffffffffffffffffffffffffffff16600073ffffffffffffffffffffffffffffffffffffffff167f8be0079c531659141344cd1fd0a4f28419497f9722a3daafe3b4186f6b6457e060405160405180910390a380600360006101000a81548173ffffffffffffffffffffffffffffffffffffffff021916908373ffffffffffffffffffffffffffffffffffffffff160217905550600360009054906101000a900473ffffffffffffffffffffffffffffffffffffffff16600460006101000a81548173ffffffffffffffffffffffffffffffffffffffff021916908373ffffffffffffffffffffffffffffffffffffffff16021790555050610f90806101c76000396000f3fe6080604052600436106100dd5760003560e01c80637ae316d01161007f5780639499001711610059578063949900171461039d578063da2b4c1e146103c8578063e7b3387c146103f3578063f2fde38b1461041e576100dd565b80637ae316d0146102ec5780638da5cb5b146103175780638f32d59b1461036e576100dd565b806336fd6624116100bb57806336fd6624146101ba5780635df813301461020b578063606185fd1461025a578063715018a6146102d5576100dd565b806327e235e3146100e25780632e1a7d4d1461014757806335921b0814610182575b600080fd5b3480156100ee57600080fd5b506101316004803603602081101561010557600080fd5b81019080803573ffffffffffffffffffffffffffffffffffffffff16906020019092919050505061046f565b6040518082815260200191505060405180910390f35b34801561015357600080fd5b506101806004803603602081101561016a57600080fd5b8101908080359060200190929190505050610487565b005b6101b86004803603604081101561019857600080fd5b8101908080359060200190929190803590602001909291905050506105d3565b005b3480156101c657600080fd5b50610209600480360360208110156101dd57600080fd5b81019080803573ffffffffffffffffffffffffffffffffffffffff169060200190929190505050610915565b005b34801561021757600080fd5b506102446004803603602081101561022e57600080fd5b8101908080359060200190929190505050610b16565b6040518082815260200191505060405180910390f35b34801561026657600080fd5b506102936004803603602081101561027d57600080fd5b8101908080359060200190929190505050610b3d565b604051808273ffffffffffffffffffffffffffffffffffffffff1673ffffffffffffffffffffffffffffffffffffffff16815260200191505060405180910390f35b3480156102e157600080fd5b506102ea610b70565b005b3480156102f857600080fd5b50610301610ca9565b6040518082815260200191505060405180910390f35b34801561032357600080fd5b5061032c610cb7565b604051808273ffffffffffffffffffffffffffffffffffffffff1673ffffffffffffffffffffffffffffffffffffffff16815260200191505060405180910390f35b34801561037a57600080fd5b50610383610ce0565b604051808215151515815260200191505060405180910390f35b3480156103a957600080fd5b506103b2610d37565b6040518082815260200191505060405180910390f35b3480156103d457600080fd5b506103dd610d3d565b6040518082815260200191505060405180910390f35b3480156103ff57600080fd5b50610408610d43565b6040518082815260200191505060405180910390f35b34801561042a57600080fd5b5061046d6004803603602081101561044157600080fd5b81019080803573ffffffffffffffffffffffffffffffffffffffff169060200190929190505050610d50565b005b60076020528060005260406000206000915090505481565b600760003373ffffffffffffffffffffffffffffffffffffffff1673ffffffffffffffffffffffffffffffffffffffff1681526020019081526020016000205481111561053c576040517f08c379a000000000000000000000000000000000000000000000000000000000815260040180806020018281038252601e8152602001807f4e6f7420656e6f7567682062616c616e636520746f207769746864726177000081525060200191505060405180910390fd5b80600760003373ffffffffffffffffffffffffffffffffffffffff1673ffffffffffffffffffffffffffffffffffffffff168152602001908152602001600020600082825403925050819055503373ffffffffffffffffffffffffffffffffffffffff166108fc829081150290604051600060405180830381858888f193505050501580156105cf573d6000803e3d6000fd5b5050565b6105db610ca9565b341461064f576040517f08c379a000000000000000000000000000000000000000000000000000000000815260040180806020018281038252601f8152602001807f4e6f7420656e6f7567682066756e647320746f20616464206120766f7465210081525060200191505060405180910390fd5b6000600460009054906101000a900473ffffffffffffffffffffffffffffffffffffffff1673ffffffffffffffffffffffffffffffffffffffff166382f252a7836040518263ffffffff1660e01b81526004018082815260200191505060206040518083038186803b1580156106c457600080fd5b505afa1580156106d8573d6000803e3d6000fd5b505050506040513d60208110156106ee57600080fd5b81019080805190602001909291905050509050600760008273ffffffffffffffffffffffffffffffffffffffff1673ffffffffffffffffffffffffffffffffffffffff16815260200190815260200160002054600254600760008473ffffffffffffffffffffffffffffffffffffffff1673ffffffffffffffffffffffffffffffffffffffff16815260200190815260200160002054011161078f57600080fd5b3373ffffffffffffffffffffffffffffffffffffffff1682847fc58317f3d54059c20f34effbf9280b0797376f67288464bbcf80575214bb1f6e60405160405180910390a4600560405180602001604052808581525090806001815401808255809150509060018203906000526020600020016000909192909190915060008201518160000155505050336006600085815260200190815260200160002060006101000a81548173ffffffffffffffffffffffffffffffffffffffff021916908373ffffffffffffffffffffffffffffffffffffffff160217905550600254600760008373ffffffffffffffffffffffffffffffffffffffff1673ffffffffffffffffffffffffffffffffffffffff16815260200190815260200160002060008282540192505081905550600154600760006108c9610cb7565b73ffffffffffffffffffffffffffffffffffffffff1673ffffffffffffffffffffffffffffffffffffffff16815260200190815260200160002060008282540192505081905550505050565b61091d610ce0565b61098f576040517f08c379a00000000000000000000000000000000000000000000000000000000081526004018080602001828103825260208152602001807f4f776e61626c653a2063616c6c6572206973206e6f7420746865206f776e657281525060200191505060405180910390fd5b600073ffffffffffffffffffffffffffffffffffffffff168173ffffffffffffffffffffffffffffffffffffffff161415610a15576040517f08c379a0000000000000000000000000000000000000000000000000000000008152600401808060200182810382526024815260200180610f416024913960400191505060405180910390fd5b8073ffffffffffffffffffffffffffffffffffffffff16600360009054906101000a900473ffffffffffffffffffffffffffffffffffffffff1673ffffffffffffffffffffffffffffffffffffffff167f3c492f084c3d4b8f3844bb604f62e56a04de04da308c0d0a3b0ded9427dfd2a860405160405180910390a380600360006101000a81548173ffffffffffffffffffffffffffffffffffffffff021916908373ffffffffffffffffffffffffffffffffffffffff16021790555080600460006101000a81548173ffffffffffffffffffffffffffffffffffffffff021916908373ffffffffffffffffffffffffffffffffffffffff16021790555050565b60058181548110610b2357fe5b906000526020600020016000915090508060000154905081565b60066020528060005260406000206000915054906101000a900473ffffffffffffffffffffffffffffffffffffffff1681565b610b78610ce0565b610bea576040517f08c379a00000000000000000000000000000000000000000000000000000000081526004018080602001828103825260208152602001807f4f776e61626c653a2063616c6c6572206973206e6f7420746865206f776e657281525060200191505060405180910390fd5b600073ffffffffffffffffffffffffffffffffffffffff166000809054906101000a900473ffffffffffffffffffffffffffffffffffffffff1673ffffffffffffffffffffffffffffffffffffffff167f8be0079c531659141344cd1fd0a4f28419497f9722a3daafe3b4186f6b6457e060405160405180910390a360008060006101000a81548173ffffffffffffffffffffffffffffffffffffffff021916908373ffffffffffffffffffffffffffffffffffffffff160217905550565b600060025460015401905090565b60008060009054906101000a900473ffffffffffffffffffffffffffffffffffffffff16905090565b60008060009054906101000a900473ffffffffffffffffffffffffffffffffffffffff1673ffffffffffffffffffffffffffffffffffffffff163373ffffffffffffffffffffffffffffffffffffffff1614905090565b60025481565b60015481565b6000600580549050905090565b610d58610ce0565b610dca576040517f08c379a00000000000000000000000000000000000000000000000000000000081526004018080602001828103825260208152602001807f4f776e61626c653a2063616c6c6572206973206e6f7420746865206f776e657281525060200191505060405180910390fd5b610dd381610dd6565b50565b600073ffffffffffffffffffffffffffffffffffffffff168173ffffffffffffffffffffffffffffffffffffffff161415610e5c576040517f08c379a0000000000000000000000000000000000000000000000000000000008152600401808060200182810382526026815260200180610f1b6026913960400191505060405180910390fd5b8073ffffffffffffffffffffffffffffffffffffffff166000809054906101000a900473ffffffffffffffffffffffffffffffffffffffff1673ffffffffffffffffffffffffffffffffffffffff167f8be0079c531659141344cd1fd0a4f28419497f9722a3daafe3b4186f6b6457e060405160405180910390a3806000806101000a81548173ffffffffffffffffffffffffffffffffffffffff021916908373ffffffffffffffffffffffffffffffffffffffff1602179055505056fe4f776e61626c653a206e6577206f776e657220697320746865207a65726f2061646472657373506f73747320636f6e7472616374277320616464726573732063616e6e6f742062652030a165627a7a723058201dd2425cc84bc60fd464b7a9f9f1d4cf912a2cb383612bf9daf5672a494da8670029",
  "source": "pragma solidity >=0.5.8 < 0.6.0;\n\nimport \"./Posts.sol\";\nimport \"./Ownable.sol\";\n\ncontract PostVotes is Ownable {\n    uint public voteFee = 0.001 ether;\n    uint public postAuthorBonus = 0.001 ether;\n\n    event VoteAdded(bytes32 indexed hash, bytes32 indexed postHash, address indexed author);\n    event PostsAddressChanged(address indexed oldAddress, address indexed newAddress);\n\n    address private postsAddress;\n    Posts private posts;\n\n    struct Vote {\n        bytes32 hash;\n    }\n\n    Vote[] public votes;\n    mapping (bytes32 => address) public voteToAuthor;\n\n    mapping (address => uint) public balances;\n\n    constructor(address _postsAddress) public {\n        postsAddress = _postsAddress;\n        posts = Posts(postsAddress);\n    }\n\n    function getVoteCount() external view returns(uint) {\n        return votes.length;\n    }\n\n    function getTotalFee() public view returns(uint) {\n        return voteFee + postAuthorBonus;\n    }\n\n    function addVote(bytes32 _hash, bytes32 _postHash) external payable {\n        require(msg.value == getTotalFee(),\n                \"Not enough funds to add a vote!\");\n\n        address postAuthor = posts.postToAuthor(_postHash);\n        require(balances[postAuthor] + postAuthorBonus > balances[postAuthor]);\n\n        emit VoteAdded(_hash, _postHash, msg.sender);\n        votes.push(Vote(_hash));\n        voteToAuthor[_hash] = msg.sender;\n        balances[postAuthor] += postAuthorBonus;\n        balances[owner()] += voteFee;\n    }\n\n    function setPostsAddress(address _newPostsAddress) external onlyOwner {\n        require(_newPostsAddress != address(0), \"Posts contract's address cannot be 0\");\n        emit PostsAddressChanged(postsAddress, _newPostsAddress);\n        postsAddress = _newPostsAddress;\n        posts = Posts(_newPostsAddress);\n    }\n\n    function withdraw(uint amount) external {\n        require(amount <= balances[msg.sender], \"Not enough balance to withdraw\");\n        balances[msg.sender] -= amount;\n        msg.sender.transfer(amount);\n    }\n}\n",
  "sourcePath": "/app/contracts/PostVotes.sol",
  "compiler": {
    "name": "solc",
    "version": "0.5.8+commit.23d335f2.Emscripten.clang"
  },
  "schemaVersion": "3.0.16",
  "updatedAt": "2019-09-27T09:09:47.939Z",
  "devdoc": {
    "methods": {
      "isOwner()": {
        "details": "Returns true if the caller is the current owner."
      },
      "owner()": {
        "details": "Returns the address of the current owner."
      },
      "renounceOwnership()": {
        "details": "Leaves the contract without owner. It will not be possible to call `onlyOwner` functions anymore. Can only be called by the current owner.     * > Note: Renouncing ownership will leave the contract without an owner, thereby removing any functionality that is only available to the owner."
      },
      "transferOwnership(address)": {
        "details": "Transfers ownership of the contract to a new account (`newOwner`). Can only be called by the current owner."
      }
    }
  },
  "userdoc": {
    "methods": {}
  }
}