{
  "contractName": "PostsContainer",
  "abi": [
    {
      "constant": true,
      "inputs": [
        {
          "name": "",
          "type": "uint256"
        }
      ],
      "name": "posts",
      "outputs": [
        {
          "name": "date",
          "type": "string"
        },
        {
          "name": "contentHash",
          "type": "string"
        }
      ],
      "payable": false,
      "stateMutability": "view",
      "type": "function"
    },
    {
      "constant": false,
      "inputs": [
        {
          "name": "_date",
          "type": "string"
        },
        {
          "name": "_contentHash",
          "type": "string"
        }
      ],
      "name": "addPost",
      "outputs": [],
      "payable": false,
      "stateMutability": "nonpayable",
      "type": "function"
    }
  ],
  "bytecode": "0x608060405234801561001057600080fd5b50610555806100206000396000f3fe608060405234801561001057600080fd5b50600436106100365760003560e01c80630b1e7f831461003b578063b02c65161461014e575b600080fd5b6100676004803603602081101561005157600080fd5b81019080803590602001909291905050506102a0565b604051808060200180602001838103835285818151815260200191508051906020019080838360005b838110156100ab578082015181840152602081019050610090565b50505050905090810190601f1680156100d85780820380516001836020036101000a031916815260200191505b50838103825284818151815260200191508051906020019080838360005b838110156101115780820151818401526020810190506100f6565b50505050905090810190601f16801561013e5780820380516001836020036101000a031916815260200191505b5094505050505060405180910390f35b61029e6004803603604081101561016457600080fd5b810190808035906020019064010000000081111561018157600080fd5b82018360208201111561019357600080fd5b803590602001918460018302840111640100000000831117156101b557600080fd5b91908080601f016020809104026020016040519081016040528093929190818152602001838380828437600081840152601f19601f8201169050808301925050505050505091929192908035906020019064010000000081111561021857600080fd5b82018360208201111561022a57600080fd5b8035906020019184600183028401116401000000008311171561024c57600080fd5b91908080601f016020809104026020016040519081016040528093929190818152602001838380828437600081840152601f19601f820116905080830192505050505050509192919290505050610401565b005b600081815481106102ad57fe5b9060005260206000209060020201600091509050806000018054600181600116156101000203166002900480601f0160208091040260200160405190810160405280929190818152602001828054600181600116156101000203166002900480156103595780601f1061032e57610100808354040283529160200191610359565b820191906000526020600020905b81548152906001019060200180831161033c57829003601f168201915b505050505090806001018054600181600116156101000203166002900480601f0160208091040260200160405190810160405280929190818152602001828054600181600116156101000203166002900480156103f75780601f106103cc576101008083540402835291602001916103f7565b820191906000526020600020905b8154815290600101906020018083116103da57829003601f168201915b5050505050905082565b600060405180604001604052808481526020018381525090806001815401808255809150509060018203906000526020600020906002020160009091929091909150600082015181600001908051906020019061045f929190610484565b50602082015181600101908051906020019061047c929190610484565b505050505050565b828054600181600116156101000203166002900490600052602060002090601f016020900481019282601f106104c557805160ff19168380011785556104f3565b828001600101855582156104f3579182015b828111156104f25782518255916020019190600101906104d7565b5b5090506105009190610504565b5090565b61052691905b8082111561052257600081600090555060010161050a565b5090565b9056fea165627a7a723058207eb2c61d3cceaf0100f13d3dbd1674916793a02c6cd53f3672b8c9f8c4d4b4110029",
  "source": "pragma solidity >=0.4.21 < 0.6.0;\n\ncontract PostsContainer {\n    struct Post {\n        string date;\n        string contentHash;\n    }\n\n    Post[] public posts;\n\n    function addPost(string memory _date, string memory _contentHash) public {\n        posts.push(Post(_date, _contentHash));\n    }\n\n}",
  "sourcePath": "/Users/adambudziak/projects/blogchain/bc/contracts/PostsContainer.sol",
  "compiler": {
    "name": "solc",
    "version": "0.5.8+commit.23d335f2.Emscripten.clang"
  },
  "schemaVersion": "3.0.11",
  "updatedAt": "2019-07-05T19:31:03.487Z",
  "devdoc": {
    "methods": {}
  },
  "userdoc": {
    "methods": {}
  }
}